{
  "_format": "hh-sol-artifact-1",
  "contractName": "DigitalAsset",
  "sourceName": "contracts/DigitalAsset.sol",
  "abi": [
    {
      "inputs": [],
      "stateMutability": "nonpayable",
      "type": "constructor"
    },
    {
      "inputs": [
        {
          "internalType": "address",
          "name": "sender",
          "type": "address"
        },
        {
          "internalType": "uint256",
          "name": "tokenId",
          "type": "uint256"
        },
        {
          "internalType": "address",
          "name": "owner",
          "type": "address"
        }
      ],
      "name": "ERC721IncorrectOwner",
      "type": "error"
    },
    {
      "inputs": [
        {
          "internalType": "address",
          "name": "operator",
          "type": "address"
        },
        {
          "internalType": "uint256",
          "name": "tokenId",
          "type": "uint256"
        }
      ],
      "name": "ERC721InsufficientApproval",
      "type": "error"
    },
    {
      "inputs": [
        {
          "internalType": "address",
          "name": "approver",
          "type": "address"
        }
      ],
      "name": "ERC721InvalidApprover",
      "type": "error"
    },
    {
      "inputs": [
        {
          "internalType": "address",
          "name": "operator",
          "type": "address"
        }
      ],
      "name": "ERC721InvalidOperator",
      "type": "error"
    },
    {
      "inputs": [
        {
          "internalType": "address",
          "name": "owner",
          "type": "address"
        }
      ],
      "name": "ERC721InvalidOwner",
      "type": "error"
    },
    {
      "inputs": [
        {
          "internalType": "address",
          "name": "receiver",
          "type": "address"
        }
      ],
      "name": "ERC721InvalidReceiver",
      "type": "error"
    },
    {
      "inputs": [
        {
          "internalType": "address",
          "name": "sender",
          "type": "address"
        }
      ],
      "name": "ERC721InvalidSender",
      "type": "error"
    },
    {
      "inputs": [
        {
          "internalType": "uint256",
          "name": "tokenId",
          "type": "uint256"
        }
      ],
      "name": "ERC721NonexistentToken",
      "type": "error"
    },
    {
      "anonymous": false,
      "inputs": [
        {
          "indexed": true,
          "internalType": "address",
          "name": "owner",
          "type": "address"
        },
        {
          "indexed": true,
          "internalType": "address",
          "name": "approved",
          "type": "address"
        },
        {
          "indexed": true,
          "internalType": "uint256",
          "name": "tokenId",
          "type": "uint256"
        }
      ],
      "name": "Approval",
      "type": "event"
    },
    {
      "anonymous": false,
      "inputs": [
        {
          "indexed": true,
          "internalType": "address",
          "name": "owner",
          "type": "address"
        },
        {
          "indexed": true,
          "internalType": "address",
          "name": "operator",
          "type": "address"
        },
        {
          "indexed": false,
          "internalType": "bool",
          "name": "approved",
          "type": "bool"
        }
      ],
      "name": "ApprovalForAll",
      "type": "event"
    },
    {
      "anonymous": false,
      "inputs": [
        {
          "indexed": false,
          "internalType": "uint256",
          "name": "_fromTokenId",
          "type": "uint256"
        },
        {
          "indexed": false,
          "internalType": "uint256",
          "name": "_toTokenId",
          "type": "uint256"
        }
      ],
      "name": "BatchMetadataUpdate",
      "type": "event"
    },
    {
      "anonymous": false,
      "inputs": [
        {
          "indexed": false,
          "internalType": "uint256",
          "name": "_tokenId",
          "type": "uint256"
        }
      ],
      "name": "MetadataUpdate",
      "type": "event"
    },
    {
      "anonymous": false,
      "inputs": [
        {
          "indexed": true,
          "internalType": "address",
          "name": "from",
          "type": "address"
        },
        {
          "indexed": true,
          "internalType": "address",
          "name": "to",
          "type": "address"
        },
        {
          "indexed": true,
          "internalType": "uint256",
          "name": "tokenId",
          "type": "uint256"
        }
      ],
      "name": "Transfer",
      "type": "event"
    },
    {
      "inputs": [
        {
          "internalType": "address",
          "name": "to",
          "type": "address"
        },
        {
          "internalType": "uint256",
          "name": "tokenId",
          "type": "uint256"
        }
      ],
      "name": "approve",
      "outputs": [],
      "stateMutability": "nonpayable",
      "type": "function"
    },
    {
      "inputs": [
        {
          "internalType": "address",
          "name": "owner",
          "type": "address"
        }
      ],
      "name": "balanceOf",
      "outputs": [
        {
          "internalType": "uint256",
          "name": "",
          "type": "uint256"
        }
      ],
      "stateMutability": "view",
      "type": "function"
    },
    {
      "inputs": [
        {
          "internalType": "uint256",
          "name": "tokenId",
          "type": "uint256"
        }
      ],
      "name": "buyToken",
      "outputs": [],
      "stateMutability": "payable",
      "type": "function"
    },
    {
      "inputs": [
        {
          "internalType": "uint256",
          "name": "",
          "type": "uint256"
        }
      ],
      "name": "creators",
      "outputs": [
        {
          "internalType": "address",
          "name": "",
          "type": "address"
        }
      ],
      "stateMutability": "view",
      "type": "function"
    },
    {
      "inputs": [
        {
          "internalType": "uint256",
          "name": "tokenId",
          "type": "uint256"
        }
      ],
      "name": "getApproved",
      "outputs": [
        {
          "internalType": "address",
          "name": "",
          "type": "address"
        }
      ],
      "stateMutability": "view",
      "type": "function"
    },
    {
      "inputs": [
        {
          "internalType": "uint256",
          "name": "tokenId",
          "type": "uint256"
        }
      ],
      "name": "getPrice",
      "outputs": [
        {
          "internalType": "uint256",
          "name": "",
          "type": "uint256"
        }
      ],
      "stateMutability": "view",
      "type": "function"
    },
    {
      "inputs": [
        {
          "internalType": "address",
          "name": "owner",
          "type": "address"
        },
        {
          "internalType": "address",
          "name": "operator",
          "type": "address"
        }
      ],
      "name": "isApprovedForAll",
      "outputs": [
        {
          "internalType": "bool",
          "name": "",
          "type": "bool"
        }
      ],
      "stateMutability": "view",
      "type": "function"
    },
    {
      "inputs": [
        {
          "internalType": "uint256",
          "name": "tokenId",
          "type": "uint256"
        },
        {
          "internalType": "uint256",
          "name": "priceInWei",
          "type": "uint256"
        }
      ],
      "name": "listTokenForSale",
      "outputs": [],
      "stateMutability": "nonpayable",
      "type": "function"
    },
    {
      "inputs": [
        {
          "internalType": "address",
          "name": "to",
          "type": "address"
        },
        {
          "internalType": "string",
          "name": "tokenURI",
          "type": "string"
        }
      ],
      "name": "mintAsset",
      "outputs": [],
      "stateMutability": "nonpayable",
      "type": "function"
    },
    {
      "inputs": [],
      "name": "name",
      "outputs": [
        {
          "internalType": "string",
          "name": "",
          "type": "string"
        }
      ],
      "stateMutability": "view",
      "type": "function"
    },
    {
      "inputs": [],
      "name": "nextTokenId",
      "outputs": [
        {
          "internalType": "uint256",
          "name": "",
          "type": "uint256"
        }
      ],
      "stateMutability": "view",
      "type": "function"
    },
    {
      "inputs": [
        {
          "internalType": "uint256",
          "name": "tokenId",
          "type": "uint256"
        }
      ],
      "name": "ownerOf",
      "outputs": [
        {
          "internalType": "address",
          "name": "",
          "type": "address"
        }
      ],
      "stateMutability": "view",
      "type": "function"
    },
    {
      "inputs": [
        {
          "internalType": "address",
          "name": "from",
          "type": "address"
        },
        {
          "internalType": "address",
          "name": "to",
          "type": "address"
        },
        {
          "internalType": "uint256",
          "name": "tokenId",
          "type": "uint256"
        }
      ],
      "name": "safeTransferFrom",
      "outputs": [],
      "stateMutability": "nonpayable",
      "type": "function"
    },
    {
      "inputs": [
        {
          "internalType": "address",
          "name": "from",
          "type": "address"
        },
        {
          "internalType": "address",
          "name": "to",
          "type": "address"
        },
        {
          "internalType": "uint256",
          "name": "tokenId",
          "type": "uint256"
        },
        {
          "internalType": "bytes",
          "name": "data",
          "type": "bytes"
        }
      ],
      "name": "safeTransferFrom",
      "outputs": [],
      "stateMutability": "nonpayable",
      "type": "function"
    },
    {
      "inputs": [
        {
          "internalType": "address",
          "name": "operator",
          "type": "address"
        },
        {
          "internalType": "bool",
          "name": "approved",
          "type": "bool"
        }
      ],
      "name": "setApprovalForAll",
      "outputs": [],
      "stateMutability": "nonpayable",
      "type": "function"
    },
    {
      "inputs": [
        {
          "internalType": "bytes4",
          "name": "interfaceId",
          "type": "bytes4"
        }
      ],
      "name": "supportsInterface",
      "outputs": [
        {
          "internalType": "bool",
          "name": "",
          "type": "bool"
        }
      ],
      "stateMutability": "view",
      "type": "function"
    },
    {
      "inputs": [],
      "name": "symbol",
      "outputs": [
        {
          "internalType": "string",
          "name": "",
          "type": "string"
        }
      ],
      "stateMutability": "view",
      "type": "function"
    },
    {
      "inputs": [
        {
          "internalType": "uint256",
          "name": "",
          "type": "uint256"
        }
      ],
      "name": "tokenPrices",
      "outputs": [
        {
          "internalType": "uint256",
          "name": "",
          "type": "uint256"
        }
      ],
      "stateMutability": "view",
      "type": "function"
    },
    {
      "inputs": [
        {
          "internalType": "uint256",
          "name": "tokenId",
          "type": "uint256"
        }
      ],
      "name": "tokenURI",
      "outputs": [
        {
          "internalType": "string",
          "name": "",
          "type": "string"
        }
      ],
      "stateMutability": "view",
      "type": "function"
    },
    {
      "inputs": [
        {
          "internalType": "address",
          "name": "from",
          "type": "address"
        },
        {
          "internalType": "address",
          "name": "to",
          "type": "address"
        },
        {
          "internalType": "uint256",
          "name": "tokenId",
          "type": "uint256"
        }
      ],
      "name": "transferFrom",
      "outputs": [],
      "stateMutability": "nonpayable",
      "type": "function"
    },
    {
      "inputs": [
        {
          "internalType": "uint256",
          "name": "tokenId",
          "type": "uint256"
        }
      ],
      "name": "unlistToken",
      "outputs": [],
      "stateMutability": "nonpayable",
      "type": "function"
    }
  ],
  "bytecode": "0x60806040523480156200001157600080fd5b506040518060400160405280600c81526020017f4469676974616c417373657400000000000000000000000000000000000000008152506040518060400160405280600481526020017f444153540000000000000000000000000000000000000000000000000000000081525081600090816200008f919062000324565b508060019081620000a1919062000324565b5050506200040b565b600081519050919050565b7f4e487b7100000000000000000000000000000000000000000000000000000000600052604160045260246000fd5b7f4e487b7100000000000000000000000000000000000000000000000000000000600052602260045260246000fd5b600060028204905060018216806200012c57607f821691505b602082108103620001425762000141620000e4565b5b50919050565b60008190508160005260206000209050919050565b60006020601f8301049050919050565b600082821b905092915050565b600060088302620001ac7fffffffffffffffffffffffffffffffffffffffffffffffffffffffffffffffff826200016d565b620001b886836200016d565b95508019841693508086168417925050509392505050565b6000819050919050565b6000819050919050565b600062000205620001ff620001f984620001d0565b620001da565b620001d0565b9050919050565b6000819050919050565b6200022183620001e4565b6200023962000230826200020c565b8484546200017a565b825550505050565b600090565b6200025062000241565b6200025d81848462000216565b505050565b5b8181101562000285576200027960008262000246565b60018101905062000263565b5050565b601f821115620002d4576200029e8162000148565b620002a9846200015d565b81016020851015620002b9578190505b620002d1620002c8856200015d565b83018262000262565b50505b505050565b600082821c905092915050565b6000620002f960001984600802620002d9565b1980831691505092915050565b6000620003148383620002e6565b9150826002028217905092915050565b6200032f82620000aa565b67ffffffffffffffff8111156200034b576200034a620000b5565b5b62000357825462000113565b6200036482828562000289565b600060209050601f8311600181146200039c576000841562000387578287015190505b62000393858262000306565b86555062000403565b601f198416620003ac8662000148565b60005b82811015620003d657848901518255600182019150602085019450602081019050620003af565b86831015620003f65784890151620003f2601f891682620002e6565b8355505b6001600288020188555050505b505050505050565b612e29806200041b6000396000f3fe60806040526004361061012a5760003560e01c806375794a3c116100ab578063c87b56dd1161006f578063c87b56dd146103df578063cd53d08e1461041c578063e5afe3e614610459578063e757223014610496578063e985e9c5146104d3578063f1f13f71146105105761012a565b806375794a3c1461030e57806395d89b4114610339578063a22cb46514610364578063ad3a358c1461038d578063b88d4fde146103b65761012a565b80632406e677116100f25780632406e677146102265780632d296bf11461024f57806342842e0e1461026b5780636352211e1461029457806370a08231146102d15761012a565b806301ffc9a71461012f57806306fdde031461016c578063081812fc14610197578063095ea7b3146101d457806323b872dd146101fd575b600080fd5b34801561013b57600080fd5b5061015660048036038101906101519190611fb9565b610539565b6040516101639190612001565b60405180910390f35b34801561017857600080fd5b5061018161059a565b60405161018e91906120ac565b60405180910390f35b3480156101a357600080fd5b506101be60048036038101906101b99190612104565b61062c565b6040516101cb9190612172565b60405180910390f35b3480156101e057600080fd5b506101fb60048036038101906101f691906121b9565b610648565b005b34801561020957600080fd5b50610224600480360381019061021f91906121f9565b61065e565b005b34801561023257600080fd5b5061024d6004803603810190610248919061224c565b610760565b005b61026960048036038101906102649190612104565b610835565b005b34801561027757600080fd5b50610292600480360381019061028d91906121f9565b6109be565b005b3480156102a057600080fd5b506102bb60048036038101906102b69190612104565b6109de565b6040516102c89190612172565b60405180910390f35b3480156102dd57600080fd5b506102f860048036038101906102f3919061228c565b6109f0565b60405161030591906122c8565b60405180910390f35b34801561031a57600080fd5b50610323610aaa565b60405161033091906122c8565b60405180910390f35b34801561034557600080fd5b5061034e610ab0565b60405161035b91906120ac565b60405180910390f35b34801561037057600080fd5b5061038b6004803603810190610386919061230f565b610b42565b005b34801561039957600080fd5b506103b460048036038101906103af9190612104565b610b58565b005b3480156103c257600080fd5b506103dd60048036038101906103d89190612484565b610c40565b005b3480156103eb57600080fd5b5061040660048036038101906104019190612104565b610c65565b60405161041391906120ac565b60405180910390f35b34801561042857600080fd5b50610443600480360381019061043e9190612104565b610d78565b6040516104509190612172565b60405180910390f35b34801561046557600080fd5b50610480600480360381019061047b9190612104565b610dab565b60405161048d91906122c8565b60405180910390f35b3480156104a257600080fd5b506104bd60048036038101906104b89190612104565b610dc3565b6040516104ca91906122c8565b60405180910390f35b3480156104df57600080fd5b506104fa60048036038101906104f59190612507565b610de0565b6040516105079190612001565b60405180910390f35b34801561051c57600080fd5b50610537600480360381019061053291906125e8565b610e74565b005b6000634906490660e01b7bffffffffffffffffffffffffffffffffffffffffffffffffffffffff1916827bffffffffffffffffffffffffffffffffffffffffffffffffffffffff19161480610593575061059282610efe565b5b9050919050565b6060600080546105a990612673565b80601f01602080910402602001604051908101604052809291908181526020018280546105d590612673565b80156106225780601f106105f757610100808354040283529160200191610622565b820191906000526020600020905b81548152906001019060200180831161060557829003601f168201915b5050505050905090565b600061063782610fe0565b5061064182611068565b9050919050565b61065a82826106556110a5565b6110ad565b5050565b600073ffffffffffffffffffffffffffffffffffffffff168273ffffffffffffffffffffffffffffffffffffffff16036106d05760006040517f64a0ae920000000000000000000000000000000000000000000000000000000081526004016106c79190612172565b60405180910390fd5b60006106e483836106df6110a5565b6110bf565b90508373ffffffffffffffffffffffffffffffffffffffff168173ffffffffffffffffffffffffffffffffffffffff161461075a578382826040517f64283d7b000000000000000000000000000000000000000000000000000000008152600401610751939291906126a4565b60405180910390fd5b50505050565b3373ffffffffffffffffffffffffffffffffffffffff16610780836109de565b73ffffffffffffffffffffffffffffffffffffffff16146107d6576040517f08c379a00000000000000000000000000000000000000000000000000000000081526004016107cd90612727565b60405180910390fd5b60008111610819576040517f08c379a000000000000000000000000000000000000000000000000000000000815260040161081090612793565b60405180910390fd5b8060096000848152602001908152602001600020819055505050565b6000600960008381526020019081526020016000205490506000610858836109de565b90506000821161089d576040517f08c379a0000000000000000000000000000000000000000000000000000000008152600401610894906127ff565b60405180910390fd5b813410156108e0576040517f08c379a00000000000000000000000000000000000000000000000000000000081526004016108d79061286b565b60405180910390fd5b3373ffffffffffffffffffffffffffffffffffffffff168173ffffffffffffffffffffffffffffffffffffffff160361094e576040517f08c379a0000000000000000000000000000000000000000000000000000000008152600401610945906128d7565b60405180910390fd5b6109598133856112d9565b8073ffffffffffffffffffffffffffffffffffffffff166108fc839081150290604051600060405180830381858888f1935050505015801561099f573d6000803e3d6000fd5b5060006009600085815260200190815260200160002081905550505050565b6109d983838360405180602001604052806000815250610c40565b505050565b60006109e982610fe0565b9050919050565b60008073ffffffffffffffffffffffffffffffffffffffff168273ffffffffffffffffffffffffffffffffffffffff1603610a635760006040517f89c62b64000000000000000000000000000000000000000000000000000000008152600401610a5a9190612172565b60405180910390fd5b600360008373ffffffffffffffffffffffffffffffffffffffff1673ffffffffffffffffffffffffffffffffffffffff168152602001908152602001600020549050919050565b60075481565b606060018054610abf90612673565b80601f0160208091040260200160405190810160405280929190818152602001828054610aeb90612673565b8015610b385780601f10610b0d57610100808354040283529160200191610b38565b820191906000526020600020905b815481529060010190602001808311610b1b57829003601f168201915b5050505050905090565b610b54610b4d6110a5565b8383611446565b5050565b3373ffffffffffffffffffffffffffffffffffffffff16610b78826109de565b73ffffffffffffffffffffffffffffffffffffffff1614610bce576040517f08c379a0000000000000000000000000000000000000000000000000000000008152600401610bc590612727565b60405180910390fd5b6000600960008381526020019081526020016000205411610c24576040517f08c379a0000000000000000000000000000000000000000000000000000000008152600401610c1b90612943565b60405180910390fd5b6000600960008381526020019081526020016000208190555050565b610c4b84848461065e565b610c5f610c566110a5565b858585856115b5565b50505050565b6060610c7082610fe0565b506000600660008481526020019081526020016000208054610c9190612673565b80601f0160208091040260200160405190810160405280929190818152602001828054610cbd90612673565b8015610d0a5780601f10610cdf57610100808354040283529160200191610d0a565b820191906000526020600020905b815481529060010190602001808311610ced57829003601f168201915b505050505090506000610d1b611766565b90506000815103610d30578192505050610d73565b600082511115610d65578082604051602001610d4d92919061299f565b60405160208183030381529060405292505050610d73565b610d6e8461177d565b925050505b919050565b60086020528060005260406000206000915054906101000a900473ffffffffffffffffffffffffffffffffffffffff1681565b60096020528060005260406000206000915090505481565b600060096000838152602001908152602001600020549050919050565b6000600560008473ffffffffffffffffffffffffffffffffffffffff1673ffffffffffffffffffffffffffffffffffffffff16815260200190815260200160002060008373ffffffffffffffffffffffffffffffffffffffff1673ffffffffffffffffffffffffffffffffffffffff16815260200190815260200160002060009054906101000a900460ff16905092915050565b60006007549050610e8583826117e6565b610e8f81836118df565b336008600083815260200190815260200160002060006101000a81548173ffffffffffffffffffffffffffffffffffffffff021916908373ffffffffffffffffffffffffffffffffffffffff16021790555060076000815480929190610ef4906129f2565b9190505550505050565b60007f80ac58cd000000000000000000000000000000000000000000000000000000007bffffffffffffffffffffffffffffffffffffffffffffffffffffffff1916827bffffffffffffffffffffffffffffffffffffffffffffffffffffffff19161480610fc957507f5b5e139f000000000000000000000000000000000000000000000000000000007bffffffffffffffffffffffffffffffffffffffffffffffffffffffff1916827bffffffffffffffffffffffffffffffffffffffffffffffffffffffff1916145b80610fd95750610fd88261193b565b5b9050919050565b600080610fec836119a5565b9050600073ffffffffffffffffffffffffffffffffffffffff168173ffffffffffffffffffffffffffffffffffffffff160361105f57826040517f7e27328900000000000000000000000000000000000000000000000000000000815260040161105691906122c8565b60405180910390fd5b80915050919050565b60006004600083815260200190815260200160002060009054906101000a900473ffffffffffffffffffffffffffffffffffffffff169050919050565b600033905090565b6110ba83838360016119e2565b505050565b6000806110cb846119a5565b9050600073ffffffffffffffffffffffffffffffffffffffff168373ffffffffffffffffffffffffffffffffffffffff161461110d5761110c818486611ba7565b5b600073ffffffffffffffffffffffffffffffffffffffff168173ffffffffffffffffffffffffffffffffffffffff161461119e5761114f6000856000806119e2565b6001600360008373ffffffffffffffffffffffffffffffffffffffff1673ffffffffffffffffffffffffffffffffffffffff168152602001908152602001600020600082825403925050819055505b600073ffffffffffffffffffffffffffffffffffffffff168573ffffffffffffffffffffffffffffffffffffffff1614611221576001600360008773ffffffffffffffffffffffffffffffffffffffff1673ffffffffffffffffffffffffffffffffffffffff168152602001908152602001600020600082825401925050819055505b846002600086815260200190815260200160002060006101000a81548173ffffffffffffffffffffffffffffffffffffffff021916908373ffffffffffffffffffffffffffffffffffffffff160217905550838573ffffffffffffffffffffffffffffffffffffffff168273ffffffffffffffffffffffffffffffffffffffff167fddf252ad1be2c89b69c2b068fc378daa952ba7f163c4a11628f55a4df523b3ef60405160405180910390a4809150509392505050565b600073ffffffffffffffffffffffffffffffffffffffff168273ffffffffffffffffffffffffffffffffffffffff160361134b5760006040517f64a0ae920000000000000000000000000000000000000000000000000000000081526004016113429190612172565b60405180910390fd5b6000611359838360006110bf565b9050600073ffffffffffffffffffffffffffffffffffffffff168173ffffffffffffffffffffffffffffffffffffffff16036113cc57816040517f7e2732890000000000000000000000000000000000000000000000000000000081526004016113c391906122c8565b60405180910390fd5b8373ffffffffffffffffffffffffffffffffffffffff168173ffffffffffffffffffffffffffffffffffffffff1614611440578382826040517f64283d7b000000000000000000000000000000000000000000000000000000008152600401611437939291906126a4565b60405180910390fd5b50505050565b600073ffffffffffffffffffffffffffffffffffffffff168273ffffffffffffffffffffffffffffffffffffffff16036114b757816040517f5b08ba180000000000000000000000000000000000000000000000000000000081526004016114ae9190612172565b60405180910390fd5b80600560008573ffffffffffffffffffffffffffffffffffffffff1673ffffffffffffffffffffffffffffffffffffffff16815260200190815260200160002060008473ffffffffffffffffffffffffffffffffffffffff1673ffffffffffffffffffffffffffffffffffffffff16815260200190815260200160002060006101000a81548160ff0219169083151502179055508173ffffffffffffffffffffffffffffffffffffffff168373ffffffffffffffffffffffffffffffffffffffff167f17307eab39ab6107e8899845ad3d59bd9653f200f220920489ca2b5937696c31836040516115a89190612001565b60405180910390a3505050565b60008373ffffffffffffffffffffffffffffffffffffffff163b111561175f578273ffffffffffffffffffffffffffffffffffffffff1663150b7a02868685856040518563ffffffff1660e01b81526004016116149493929190612a8f565b6020604051808303816000875af192505050801561165057506040513d601f19601f8201168201806040525081019061164d9190612af0565b60015b6116d4573d8060008114611680576040519150601f19603f3d011682016040523d82523d6000602084013e611685565b606091505b5060008151036116cc57836040517f64a0ae920000000000000000000000000000000000000000000000000000000081526004016116c39190612172565b60405180910390fd5b805181602001fd5b63150b7a0260e01b7bffffffffffffffffffffffffffffffffffffffffffffffffffffffff1916817bffffffffffffffffffffffffffffffffffffffffffffffffffffffff19161461175d57836040517f64a0ae920000000000000000000000000000000000000000000000000000000081526004016117549190612172565b60405180910390fd5b505b5050505050565b606060405180602001604052806000815250905090565b606061178882610fe0565b506000611793611766565b905060008151116117b357604051806020016040528060008152506117de565b806117bd84611c6b565b6040516020016117ce92919061299f565b6040516020818303038152906040525b915050919050565b600073ffffffffffffffffffffffffffffffffffffffff168273ffffffffffffffffffffffffffffffffffffffff16036118585760006040517f64a0ae9200000000000000000000000000000000000000000000000000000000815260040161184f9190612172565b60405180910390fd5b6000611866838360006110bf565b9050600073ffffffffffffffffffffffffffffffffffffffff168173ffffffffffffffffffffffffffffffffffffffff16146118da5760006040517f73c6ac6e0000000000000000000000000000000000000000000000000000000081526004016118d19190612172565b60405180910390fd5b505050565b806006600084815260200190815260200160002090816118ff9190612cc9565b507ff8e1a15aba9398e019f0b49df1a4fde98ee17ae345cb5f6b5e2c27f5033e8ce78260405161192f91906122c8565b60405180910390a15050565b60007f01ffc9a7000000000000000000000000000000000000000000000000000000007bffffffffffffffffffffffffffffffffffffffffffffffffffffffff1916827bffffffffffffffffffffffffffffffffffffffffffffffffffffffff1916149050919050565b60006002600083815260200190815260200160002060009054906101000a900473ffffffffffffffffffffffffffffffffffffffff169050919050565b8080611a1b5750600073ffffffffffffffffffffffffffffffffffffffff168273ffffffffffffffffffffffffffffffffffffffff1614155b15611b4f576000611a2b84610fe0565b9050600073ffffffffffffffffffffffffffffffffffffffff168373ffffffffffffffffffffffffffffffffffffffff1614158015611a9657508273ffffffffffffffffffffffffffffffffffffffff168173ffffffffffffffffffffffffffffffffffffffff1614155b8015611aa95750611aa78184610de0565b155b15611aeb57826040517fa9fbf51f000000000000000000000000000000000000000000000000000000008152600401611ae29190612172565b60405180910390fd5b8115611b4d57838573ffffffffffffffffffffffffffffffffffffffff168273ffffffffffffffffffffffffffffffffffffffff167f8c5be1e5ebec7d5bd14f71427d1e84f3dd0314c0f7b2291e5b200ac8c7c3b92560405160405180910390a45b505b836004600085815260200190815260200160002060006101000a81548173ffffffffffffffffffffffffffffffffffffffff021916908373ffffffffffffffffffffffffffffffffffffffff16021790555050505050565b611bb2838383611d39565b611c6657600073ffffffffffffffffffffffffffffffffffffffff168373ffffffffffffffffffffffffffffffffffffffff1603611c2757806040517f7e273289000000000000000000000000000000000000000000000000000000008152600401611c1e91906122c8565b60405180910390fd5b81816040517f177e802f000000000000000000000000000000000000000000000000000000008152600401611c5d929190612d9b565b60405180910390fd5b505050565b606060006001611c7a84611dfa565b01905060008167ffffffffffffffff811115611c9957611c98612359565b5b6040519080825280601f01601f191660200182016040528015611ccb5781602001600182028036833780820191505090505b509050600082602001820190505b600115611d2e578080600190039150507f3031323334353637383961626364656600000000000000000000000000000000600a86061a8153600a8581611d2257611d21612dc4565b5b04945060008503611cd9575b819350505050919050565b60008073ffffffffffffffffffffffffffffffffffffffff168373ffffffffffffffffffffffffffffffffffffffff1614158015611df157508273ffffffffffffffffffffffffffffffffffffffff168473ffffffffffffffffffffffffffffffffffffffff161480611db25750611db18484610de0565b5b80611df057508273ffffffffffffffffffffffffffffffffffffffff16611dd883611068565b73ffffffffffffffffffffffffffffffffffffffff16145b5b90509392505050565b600080600090507a184f03e93ff9f4daa797ed6e38ed64bf6a1f0100000000000000008310611e58577a184f03e93ff9f4daa797ed6e38ed64bf6a1f0100000000000000008381611e4e57611e4d612dc4565b5b0492506040810190505b6d04ee2d6d415b85acef81000000008310611e95576d04ee2d6d415b85acef81000000008381611e8b57611e8a612dc4565b5b0492506020810190505b662386f26fc100008310611ec457662386f26fc100008381611eba57611eb9612dc4565b5b0492506010810190505b6305f5e1008310611eed576305f5e1008381611ee357611ee2612dc4565b5b0492506008810190505b6127108310611f12576127108381611f0857611f07612dc4565b5b0492506004810190505b60648310611f355760648381611f2b57611f2a612dc4565b5b0492506002810190505b600a8310611f44576001810190505b80915050919050565b6000604051905090565b600080fd5b600080fd5b60007fffffffff0000000000000000000000000000000000000000000000000000000082169050919050565b611f9681611f61565b8114611fa157600080fd5b50565b600081359050611fb381611f8d565b92915050565b600060208284031215611fcf57611fce611f57565b5b6000611fdd84828501611fa4565b91505092915050565b60008115159050919050565b611ffb81611fe6565b82525050565b60006020820190506120166000830184611ff2565b92915050565b600081519050919050565b600082825260208201905092915050565b60005b8381101561205657808201518184015260208101905061203b565b60008484015250505050565b6000601f19601f8301169050919050565b600061207e8261201c565b6120888185612027565b9350612098818560208601612038565b6120a181612062565b840191505092915050565b600060208201905081810360008301526120c68184612073565b905092915050565b6000819050919050565b6120e1816120ce565b81146120ec57600080fd5b50565b6000813590506120fe816120d8565b92915050565b60006020828403121561211a57612119611f57565b5b6000612128848285016120ef565b91505092915050565b600073ffffffffffffffffffffffffffffffffffffffff82169050919050565b600061215c82612131565b9050919050565b61216c81612151565b82525050565b60006020820190506121876000830184612163565b92915050565b61219681612151565b81146121a157600080fd5b50565b6000813590506121b38161218d565b92915050565b600080604083850312156121d0576121cf611f57565b5b60006121de858286016121a4565b92505060206121ef858286016120ef565b9150509250929050565b60008060006060848603121561221257612211611f57565b5b6000612220868287016121a4565b9350506020612231868287016121a4565b9250506040612242868287016120ef565b9150509250925092565b6000806040838503121561226357612262611f57565b5b6000612271858286016120ef565b9250506020612282858286016120ef565b9150509250929050565b6000602082840312156122a2576122a1611f57565b5b60006122b0848285016121a4565b91505092915050565b6122c2816120ce565b82525050565b60006020820190506122dd60008301846122b9565b92915050565b6122ec81611fe6565b81146122f757600080fd5b50565b600081359050612309816122e3565b92915050565b6000806040838503121561232657612325611f57565b5b6000612334858286016121a4565b9250506020612345858286016122fa565b9150509250929050565b600080fd5b600080fd5b7f4e487b7100000000000000000000000000000000000000000000000000000000600052604160045260246000fd5b61239182612062565b810181811067ffffffffffffffff821117156123b0576123af612359565b5b80604052505050565b60006123c3611f4d565b90506123cf8282612388565b919050565b600067ffffffffffffffff8211156123ef576123ee612359565b5b6123f882612062565b9050602081019050919050565b82818337600083830152505050565b6000612427612422846123d4565b6123b9565b90508281526020810184848401111561244357612442612354565b5b61244e848285612405565b509392505050565b600082601f83011261246b5761246a61234f565b5b813561247b848260208601612414565b91505092915050565b6000806000806080858703121561249e5761249d611f57565b5b60006124ac878288016121a4565b94505060206124bd878288016121a4565b93505060406124ce878288016120ef565b925050606085013567ffffffffffffffff8111156124ef576124ee611f5c565b5b6124fb87828801612456565b91505092959194509250565b6000806040838503121561251e5761251d611f57565b5b600061252c858286016121a4565b925050602061253d858286016121a4565b9150509250929050565b600067ffffffffffffffff82111561256257612561612359565b5b61256b82612062565b9050602081019050919050565b600061258b61258684612547565b6123b9565b9050828152602081018484840111156125a7576125a6612354565b5b6125b2848285612405565b509392505050565b600082601f8301126125cf576125ce61234f565b5b81356125df848260208601612578565b91505092915050565b600080604083850312156125ff576125fe611f57565b5b600061260d858286016121a4565b925050602083013567ffffffffffffffff81111561262e5761262d611f5c565b5b61263a858286016125ba565b9150509250929050565b7f4e487b7100000000000000000000000000000000000000000000000000000000600052602260045260246000fd5b6000600282049050600182168061268b57607f821691505b60208210810361269e5761269d612644565b5b50919050565b60006060820190506126b96000830186612163565b6126c660208301856122b9565b6126d36040830184612163565b949350505050565b7f4e6f7420746865206f776e657200000000000000000000000000000000000000600082015250565b6000612711600d83612027565b915061271c826126db565b602082019050919050565b6000602082019050818103600083015261274081612704565b9050919050565b7f5072696365206d7573742062652067726561746572207468616e207a65726f00600082015250565b600061277d601f83612027565b915061278882612747565b602082019050919050565b600060208201905081810360008301526127ac81612770565b9050919050565b7f546f6b656e206e6f7420666f722073616c650000000000000000000000000000600082015250565b60006127e9601283612027565b91506127f4826127b3565b602082019050919050565b60006020820190508181036000830152612818816127dc565b9050919050565b7f496e73756666696369656e74207061796d656e74000000000000000000000000600082015250565b6000612855601483612027565b91506128608261281f565b602082019050919050565b6000602082019050818103600083015261288481612848565b9050919050565b7f43616e6e6f742062757920796f7572206f776e20746f6b656e00000000000000600082015250565b60006128c1601983612027565b91506128cc8261288b565b602082019050919050565b600060208201905081810360008301526128f0816128b4565b9050919050565b7f546f6b656e206e6f74206c697374656400000000000000000000000000000000600082015250565b600061292d601083612027565b9150612938826128f7565b602082019050919050565b6000602082019050818103600083015261295c81612920565b9050919050565b600081905092915050565b60006129798261201c565b6129838185612963565b9350612993818560208601612038565b80840191505092915050565b60006129ab828561296e565b91506129b7828461296e565b91508190509392505050565b7f4e487b7100000000000000000000000000000000000000000000000000000000600052601160045260246000fd5b60006129fd826120ce565b91507fffffffffffffffffffffffffffffffffffffffffffffffffffffffffffffffff8203612a2f57612a2e6129c3565b5b600182019050919050565b600081519050919050565b600082825260208201905092915050565b6000612a6182612a3a565b612a6b8185612a45565b9350612a7b818560208601612038565b612a8481612062565b840191505092915050565b6000608082019050612aa46000830187612163565b612ab16020830186612163565b612abe60408301856122b9565b8181036060830152612ad08184612a56565b905095945050505050565b600081519050612aea81611f8d565b92915050565b600060208284031215612b0657612b05611f57565b5b6000612b1484828501612adb565b91505092915050565b60008190508160005260206000209050919050565b60006020601f8301049050919050565b600082821b905092915050565b600060088302612b7f7fffffffffffffffffffffffffffffffffffffffffffffffffffffffffffffffff82612b42565b612b898683612b42565b95508019841693508086168417925050509392505050565b6000819050919050565b6000612bc6612bc1612bbc846120ce565b612ba1565b6120ce565b9050919050565b6000819050919050565b612be083612bab565b612bf4612bec82612bcd565b848454612b4f565b825550505050565b600090565b612c09612bfc565b612c14818484612bd7565b505050565b5b81811015612c3857612c2d600082612c01565b600181019050612c1a565b5050565b601f821115612c7d57612c4e81612b1d565b612c5784612b32565b81016020851015612c66578190505b612c7a612c7285612b32565b830182612c19565b50505b505050565b600082821c905092915050565b6000612ca060001984600802612c82565b1980831691505092915050565b6000612cb98383612c8f565b9150826002028217905092915050565b612cd28261201c565b67ffffffffffffffff811115612ceb57612cea612359565b5b612cf58254612673565b612d00828285612c3c565b600060209050601f831160018114612d335760008415612d21578287015190505b612d2b8582612cad565b865550612d93565b601f198416612d4186612b1d565b60005b82811015612d6957848901518255600182019150602085019450602081019050612d44565b86831015612d865784890151612d82601f891682612c8f565b8355505b6001600288020188555050505b505050505050565b6000604082019050612db06000830185612163565b612dbd60208301846122b9565b9392505050565b7f4e487b7100000000000000000000000000000000000000000000000000000000600052601260045260246000fdfea264697066735822122094fcd8854e46130bf30823cb0845f88fa7b0a9e43a6c276366fd19d93ccd7f5664736f6c63430008140033",
  "linkReferences": {},
  "deployedLinkReferences": {}
}